:020000040800F2
:10000000000400204701000875010008770100087E
:100010007B0100087F010008830100080000000048
:100020000000000000000000000000008701000840
:1000300089010008000000008B0100088D01000804
:1000400067010008670100086701000867010008F0
:1000500067010008670100086701000867010008E0
:1000600067010008670100086701000867010008D0
:1000700067010008670100086701000867010008C0
:1000800067010008670100086701000867010008B0
:1000900067010008670100086701000867010008A0
:1000A0006701000867010008670100086701000890
:1000B0006701000867010008670100086701000880
:1000C0006701000867010008670100086701000870
:1000D000670100089B150008670100086701000818
:1000E0006701000867010008670100086701000850
:1000F0006701000867010008670100086701000840
:10010000670100086701000867010008670100082F
:10011000670100086701000867010008670100081F
:10012000670100086701000867010008670100080F
:10013000DFF80CD001F066FA00480047C301000860
:1001400028020020704708488047084981F3088842
:1001500007480047FEE7FEE7FEE7FEE7FEE7FEE7AB
:10016000FEE7FEE7FEE7FEE7450100082802002063
:1001700031010008704700BFFEE700BFFEE700BF87
:10018000FEE700BFFEE7704770477047704700000A
:1001900008B50121102000F027FE4FF40050ADF803
:1001A000000010208DF8030003208DF8020069463E
:1001B0001C4800F00FFB4FF400511A4800F0B7FB49
:1001C00008BD00BF01F09EF8482000F043FAFFF799
:1001D000DFFF00F0C1F801F0BFF8002000F01EFAC8
:1001E0004FF4165001F082F91AE00F4801F019F9A6
:1001F000012809D10C48827801780CA001F014FA8A
:1002000040F2DC5000F042FA4FF47A7000F03EFA0F
:100210004FF4FA6000F03AFA4FF4FA6000F036FA60
:10022000E3E7000000100140000000207B2268226C
:100230003A222564222C2274223A222564227D202F
:100240000000000008B50121082000F0CDFD4FF4AA
:100250007E40ADF8000003208DF8020010208DF8DC
:1002600003006946FA4800F0B5FA08BD00210821EC
:1002700018E000F080022AB14FF40042F44B103332
:100280001A6004E04FF40042F14B14331A604FF44B
:100290000052EF4B14331A601B1F1A604206100EF7
:1002A0004A1ED1B20029E4DC704710B504464FF471
:1002B0000060E74914310860401008602046FFF7ED
:1002C000D5FF4FF40060E2491031086010BD10B551
:1002D00004464FF40060DE49143108604010091FE5
:1002E00008602046FFF7C2FF4FF40060D849103184
:1002F000086010BD10B504464FF40060D4491431B5
:1003000008604010091F08602012FFF7AFFFE0B23D
:10031000FFF7ACFF4FF40060CD491031086010BD0D
:1003200030B505460C462846FFF7BFFF2046FFF7CD
:10033000CEFF30BD10B54FF48050C5491431086070
:10034000642000F0A3F94FF48050C14910310860D7
:10035000322000F09BF910BD10B5FFF773FFFFF7D7
:10036000E9FF1120FFF7A1FF782000F08FF9B120FD
:10037000FFF79BFF0120FFF7AAFF2C20FFF7A7FF45
:100380002D20FFF7A4FFB220FFF78FFF0120FFF71A
:100390009EFF2C20FFF79BFF2D20FFF798FFB32037
:1003A000FFF783FF0120FFF792FF2C20FFF78FFF5D
:1003B0002D20FFF78CFF0120FFF789FF2C20FFF78E
:1003C00086FF2D20FFF783FFB420FFF76EFF072085
:1003D000FFF77DFFC020FFF768FFA220FFF777FF40
:1003E0000220FFF774FF8420FFF771FFC120FFF7A1
:1003F0005CFFC520FFF76BFFC220FFF756FF0A2006
:10040000FFF765FF0020FFF762FFC320FFF74DFFF6
:100410008A20FFF75CFF2A20FFF759FFC420FFF76F
:1004200044FF8A20FFF753FFEE20FFF750FFC5205F
:10043000FFF73BFF0E20FFF74AFF3620FFF735FF9F
:10044000C820FFF744FFE020FFF72FFF0F20FFF742
:100450003EFF1A20FFF73BFF0F20FFF738FF182061
:10046000FFF735FF2F20FFF732FF2820FFF72FFF80
:100470002020FFF72CFF2220FFF729FF1F20FFF786
:1004800026FF1B20FFF723FF2320FFF720FF372045
:10049000FFF71DFF0020FFF71AFF0720FFF717FFE8
:1004A0000220FFF714FF1020FFF711FFE120FFF7F4
:1004B000FCFE0F20FFF70BFF1B20FFF708FF0F20AC
:1004C000FFF705FF1720FFF702FF3320FFF7FFFEBE
:1004D0002C20FFF7FCFE2920FFF7F9FE2E20FFF766
:1004E000F6FE3020FFF7F3FE3020FFF7F0FE392054
:1004F000FFF7EDFE3F20FFF7EAFE0020FFF7E7FEE3
:100500000720FFF7E4FE0320FFF7E1FE1020FFF7CE
:10051000DEFE2A20FFF7C9FE0020FFF7D8FE0020EC
:10052000FFF7D5FE0020FFF7D2FE7F20FFF7CFFEBA
:100530002B20FFF7BAFE0020FFF7C9FE0020FFF7CF
:10054000C6FE0020FFF7C3FE9F20FFF7C0FEF0208D
:10055000FFF7ABFE0120FFF7BAFEF620FFF7A5FE7E
:100560000020FFF7B4FE3A20FFF79FFE0520FFF7BB
:10057000AEFE2920FFF799FE10BDF0B504460D46EA
:1005800016461F462A20FFF790FE0020FFF79FFE29
:10059000A11CC8B2FFF79BFE0020FFF798FEB11C1C
:1005A000C8B2FFF794FE2B20FFF77FFE0020FFF775
:1005B0008EFEE91CC8B2FFF78AFE0020FFF787FE17
:1005C000F91CC8B2FFF783FE2C20FFF76EFEF0BDCA
:1005D00030B504460D462B46224629462046FFF7F5
:1005E000CCFF30BD70B504460D461646681C83B27C
:1005F000601C82B229462046FFF7BFFF3046FFF756
:1006000079FE70BD60B505460E4631462846FFF7B7
:10061000DFFFE0B2FFF75BFE204660BD70B5064627
:100620007F231A4600210846FFF7A7FF2C20FFF77B
:100630003CFE002408E0002503E03046FFF75AFEA8
:100640006D1C802DF9D3641C802CF4D370BD000088
:10065000000C01404FF0E021096921F004014FF046
:10066000E0221161C21700EB5272C2F3C702234BA2
:100670001A701946097801EB4102C2EBC1114FF61D
:10068000FF7202EAC1011E4A1180704701461C4AEE
:1006900012884A434FF0E0235A6100229A610122F6
:1006A0001A6100BF4FF0E022106900F001021AB198
:1006B00000F48032002AF5D000224FF0E0231A61C6
:1006C0009A61704701460D4A12784A434FF0E02381
:1006D0005A6100229A6101221A6100BF4FF0E022A4
:1006E000106900F001021AB100F48032002AF5D03E
:1006F00000224FF0E0231A619A6170470600002043
:100700000800002010B50446C649601A8C422FD05C
:1007100009DCC548204480B1B0F5806F16D0B0F533
:10072000006F4AD11BE0B0F5806F2AD0B0F5006FA2
:1007300030D0B0F5406F40D135E00121042000F009
:100740006DFB0021042000F069FB37E00121082047
:1007500000F064FB0021082000F060FB2EE0012186
:10076000102000F05BFB0021102000F057FB25E07B
:100770000121202000F052FB0021202000F04EFB40
:100780001CE00121402000F049FB0021402000F046
:1007900045FB13E00121802000F040FB0021802078
:1007A00000F03CFB0AE00121080200F037FB0021C9
:1007B0004FF4807000F032FB00E000BF00BF10BDBE
:1007C00010B50121084600F029FB0021012000F0AE
:1007D00025FB10BD2DE9F041024600250026002032
:1007E00000230024002791F803C00CF00F0591F8B6
:1007F00003C00CF0100CBCF1000F03D091F802C044
:100800004CEA050591F800C0BCF1000F31D0146826
:1008100000202BE04FF0010C0CFA00F3B1F800C0FF
:100820000CEA03069E4220D183004FF00F0C0CFA15
:1008300003F7BC4305FA03FC4CEA040491F803C037
:10084000BCF1280F06D14FF0010C0CFA00FCC2F8E5
:1008500014C00AE091F803C0BCF1480F05D14FF075
:10086000010C0CFA00FCC2F810C0401C0828D1D3BF
:100870001460B1F800C0BCF1FF0F34DD54680020F3
:100880002EE000F1080C4FF0010808FA0CF3B1F863
:1008900000C00CEA03069E4221D183004FF00F0CEA
:1008A0000CFA03F7BC4305FA03FC4CEA040491F884
:1008B00003C0BCF1280F05D100F1080C08FA0CF8B0
:1008C000C2F8148091F803C0BCF1480F07D100F1C1
:1008D000080C4FF0010808FA0CF8C2F81080401C10
:1008E0000828CED35460BDE8F0814FF6FF71018037
:1008F000022181700421C170704702460020936874
:100900000B400BB1012000E00020704701468868D1
:1009100080B2704702460020D3680B400BB1012023
:1009200000E0002070470146C86880B2704701614E
:100930007047416170470AB1016100E04161704751
:10094000C16070474FF480320A43826181618261E5
:1009500082698269704702460020344B18684FF65E
:100960008073184040EA02100843304B186070470B
:100970002F49C8617047F0B50A46002300240021C2
:1009800000252A4E7168C0F3034583B200F4401677
:10099000B6F5401F08D121F07061244E766826F02C
:1009A0007066224F7E6012E000F48016B6F5801F5C
:1009B00006D1032606FA05F4A14341F0706106E072
:1009C000460D360103FA06F6B14341F0706122B1DB
:1009D000460D360103FA06F63143144E7160F0BD40
:1009E00030B500228B071C0F0F2303FA04F20F4BC4
:1009F00008338C1053F8243093430C4C08348D107A
:100A000044F8253023468C1053F824308C07240FEB
:100A100000FA04F42343054C08348D1044F82530C3
:100A200030BD00000014014000F8FEBF000001408E
:100A30000000204231490143314A1160704770B5CE
:100A4000002100230F22C47804B32D4C246804F441
:100A5000E064C4F5E064210AC1F10403CA404478AB
:100A600004FA03F18478144021430901254C0678E7
:100A7000A155047804F01F050124AC4005786D11E0
:100A8000AD0005F1E025C5F8004109E0047804F067
:100A90001F050124AC401C4D0678761145F8264010
:100AA00070BD1A4A0A400243154B1B1F1A6070475B
:100AB00039B1134A121D12680243114B1B1D1A60F3
:100AC00006E00F4A121D126882430D4B1B1D1A606F
:100AD0007047042808D14FF0E021096941F0040172
:100AE0004FF0E022116107E04FF0E021096921F0A9
:100AF00004014FF0E0221161704700000000FA0588
:100B00000CED00E000E400E080E100E080FFFF1F6A
:100B1000DE48006840F00100DC4908600846406893
:100B2000DB490840D949486008460068D94908406F
:100B3000D64908600846006820F48020086008460E
:100B4000406820F4FE004860002088607047CF496C
:100B5000096821F48031CD4A11601146096821F4F9
:100B600080211160B0F5803F03D0B0F5802F0ED109
:100B700006E0C649096841F48031C44A116007E0C3
:100B8000C249096841F4A021C04A116000E000BFD9
:100B900000BF704710B501460022002300204A1113
:100BA000012A02D1B94C236806E0022A02D1B74CCF
:100BB000236A01E0B54C636A01F01F0201249440EE
:100BC0001C400CB1012000E0002010BD38B5002011
:100BD00000900024002500BF3120FFF7DBFF054611
:100BE0000098401C00901DB90098B0F5A06FF3D19B
:100BF0003120FFF7CFFF08B1012400E00024204698
:100C000038BD01460020A14A106820F0F80040EAF3
:100C1000C10010607047A04908607047024600207C
:100C20009A4B586820F47C1042EA01031843974B12
:100C30005860704798490866704701460020934AFB
:100C4000506820F003000843506070478F484068A8
:100C500000F00C007047014600208C4A506820F0DC
:100C6000F00008435060704701460020874A5068F2
:100C700020F4E06008435060704701460020834A3A
:100C8000506820F4605040EAC1005060704729B1BC
:100C90007E4A527A02437D4B5A7204E07B4A527A72
:100CA00082437A4B5A7270477B49D831086070474B
:100CB00001460020754A506820F4404008435060C7
:100CC00070470021714A20321170704A82F820105A
:100CD000012802D004280AD104E001216B4A203205
:100CE000117005E00521694A2032117000E000BF53
:100CF00000BF70476949086070476449096A014349
:100D0000624A11627047654944390860704730B5DE
:100D100000210022002400235C4D6D6805F00C01C9
:100D200021B1042905D0082923D105E05C4D0560D7
:100D300022E05B4D05601FE0544D6D6805F47012B4
:100D4000022505EB9242514D6D6805F480341CB9C3
:100D5000544D554305600BE04C4D6D6805F400356E
:100D60001DB1504D5543056002E04D4D55430560A2
:100D700002E04B4D056000BF00BF444D6D6805F0BB
:100D8000F0010909484D6B5C0568DD4045603F4D49
:100D90006D6805F4E061090A434D6B5C4568DD4010
:100DA00085603A4D6D6805F46051C90A3E4D6B5C33
:100DB0004568DD40C560354D6D6805F44041890BDF
:100DC0003A4D6B5CC568B5FBF3F5056130BD29B1E3
:100DD0002E4A526902432D4B5A6104E02B4A526954
:100DE00082432A4B5A61704729B1284A92690243CB
:100DF000264B9A6104E0254A92698243234B9A610B
:100E0000704729B1214AD2690243204BDA6104E0DC
:100E10001E4AD26982431D4BDA61704729B11B4AD1
:100E2000D2680243194BDA6004E0184AD268824360
:100E3000164BDA60704729B1144A12690243134B0A
:100E40001A6104E0114A12698243104B1A6170471B
:100E500012494039086070470F49C86470470B4910
:100E6000C87170470948406A40F08070074948627D
:100E7000704701460020054A92680A400AB10120E5
:100E800000E000207047014988727047001002405E
:100E90000000FFF8FFFFF6FE0000424280044242DD
:100EA00000127A0000093D000A0000201A0000200C
:100EB00010B50446D749601A8C422BD006DCD648C0
:100EC000204498B1B0F5806F38D119E0B0F5806F4B
:100ED0002AD0B0F56C4F31D101218803FFF79EFF76
:100EE00000214FF48040FFF799FF28E001214804DA
:100EF000FFF7A1FF00214FF40030FFF79CFF1EE039
:100F000001218804FFF797FF00214FF48020FFF7AD
:100F100092FF14E00121C804FFF78DFF00214FF478
:100F20000020FFF788FF0AE001210805FFF783FF93
:100F300000214FF48010FFF77EFF00E000BF00BFEC
:100F400010BD2DE9F04786B005460E460024A246A6
:100F500000BF00BF00272F462C8A4CF6FF700440CC
:100F6000F08804432C82AC894EF6F3100440B0881C
:100F700031890843718908430443AC81AC8A4FF638
:100F8000FF400440B0890443AC8201A8FFF7BFFED4
:100F9000A248874202D1DDF810A001E0DDF80CA0E4
:100FA0000AEBCA0000EB0A1031688900B0FBF1F8C7
:100FB0006420B8FBF0F004012009642101FB1089D2
:100FC000322000EB0910B0FBF1F000F00F000443F9
:100FD0002C8106B0BDE8F0874FF4E13101600021BB
:100FE0008180C18001810C21418100218181704774
:100FF00010B502460020108A4FF2FF0318400B88FC
:101000004C8823438C882343CC8823431843108285
:1010100010BD0021018041808180C180704721B1D5
:10102000828942F40052828104E082894DF6FF7386
:101030001A4082817047F0B503460024002600253F
:1010400000201846C1F3421401F01F06012707FAD9
:1010500006F5012C01D10C3004E0022C01D1103036
:1010600000E014301AB107682F43076002E00768F8
:10107000AF430760F0BD1AB1838A0B43838202E05D
:10108000838A8B4383827047028A4FF6F0731A403B
:101090000282028A0A430282704782894FF2FF73FA
:1010A0001A40828182890A438281704721B18289F4
:1010B00042F00202828104E082894FF6FD731A40F9
:1010C00082817047028A4FF6DF731A400282028AD9
:1010D0000A430282704721B1028A42F480420282AE
:1010E00004E0028A4BF6FF731A4002827047C1F394
:1010F00008028280704701468888C0F30800704764
:10110000818941F0010181817047028BD2B2028353
:10111000028B42EA012202837047028B02F47F4273
:101120000283028B0A430283704721B1828A42F014
:101130002002828204E0828A4FF6DF731A408282A4
:10114000704721B1828A42F01002828204E0828AD2
:101150004FF6EF731A408282704721B1828A42F0C3
:101160000802828204E0828A4FF6F7731A40828274
:101170007047828A4FF6FB731A408282828A0A4342
:101180008282704721B1828A42F00202828204E0A8
:10119000828A4FF6FD731A40828270470246002011
:1011A00013880B400BB1012000E000207047CA43B8
:1011B0000280704770B502460B46002400210025CE
:1011C0000020C3F3421503F01F01012606FA01F1C6
:1011D000012D02D19689314006E0022D02D1168AF6
:1011E000314001E0968A31401C12012606FA04F4CF
:1011F0001688344011B10CB1012000E0002070BD10
:1012000010B5002200230A1201249440A3B2DC434B
:10121000048010BD004C004000BCFFBF00380140FE
:101220000CB50020019000904748006840F48030E1
:101230004549086000BF4448006800F40030009051
:101240000198401C0190009818B90198B0F5A06F62
:10125000F1D13D48006800F4003010B10120009049
:1012600001E0002000900098012844D13748006830
:1012700040F01000354908600846006820F003007F
:1012800008600846006840F0020008602E48406888
:101290002D4948600846406848600846406840F468
:1012A000806048600846406820F47C10486008462A
:1012B000406840F4E81048600846006840F08070DC
:1012C000086000BF2048006800F000700028F9D0D6
:1012D0001D48406820F003001B49486008464068EC
:1012E00040F00200486000BF1748406800F00C0062
:1012F0000828F9D101E000BFFEE70CBD10B5FFF7EB
:101300008FFF10BD10B51048006840F001000E4975
:101310000860084640680E4908400B494860084686
:1013200000680C490840084908600846006820F435
:10133000802008600846406820F4FE0048600020D5
:101340008860FFF7DBFF10BD001002400020024064
:101350000000FFF8FFFFF6FE08B501211020FFF79F
:1013600043FD4FF48040ADF8000010208DF80300DD
:1013700003208DF8020069465348FFF72BFA10212D
:101380005148FFF7D4FA08BD08B54FF48040ADF8D6
:10139000000048208DF8030069464B48FFF71AFA11
:1013A00008BD08B54FF48040ADF8000010208DF85E
:1013B000030003208DF8020069464348FFF70AFA4C
:1013C00008BD70B50025002427E000BF4FF4804120
:1013D0003D48FFF792FA0028F8D02820FFF772F96D
:1013E0004FF480413848FFF788FA01280ED100BF3A
:1013F0004FF480413448FFF780FA0128F8D0C4F157
:10140000070101208840C0B2054304E0C4F1070190
:10141000012088408543601CC4B2082CD5DB2846D7
:1014200070BD10B50446FFF7BCFF4FF4804126485D
:10143000FFF77FFA1220FFF729F94FF48041224885
:10144000FFF775FA1E20FFF73DF9FFF79DFF4FF4F8
:1014500080411D48FFF751FA88BB00BF4FF480411F
:101460001948FFF74AFA0028F8D000BF4FF480412E
:101470001548FFF742FA0128F8D0FFF7A2FF2070C5
:10148000FFF79FFF6070FFF79CFFA070FFF799FFC9
:10149000E070FFF796FF2071FFF783FF4FF4804164
:1014A0000948FFF744FA207861780844A178084495
:1014B000E17808442179884202D1012010BD01E081
:1014C0000020FBE70020F9E70010014070B504465A
:1014D0000D46E1B23E48FFF70AFE00BF80213C48BE
:1014E000FFF75CFE0028F9D0204670BD10B586B02D
:1014F000044601210420FFF777FC01218803FFF750
:1015000073FC01210846FFF76FFC4FF40070ADF843
:10151000140003208DF8160018208DF8170005A977
:101520002C48FFF757F94FF48060ADF81400042001
:101530008DF8170005A92748FFF74CF90194002002
:10154000ADF80800ADF80A00ADF80C00ADF81000D9
:101550000C20ADF80E0001A91D48FFF7F2FC012197
:101560001B48FFF75CFD40211948FFF720FE0122D0
:1015700040F225511648FFF75EFD25208DF800004A
:1015800003208DF801008DF8020001208DF8030082
:101590006846FFF754FA06B010BD10B540F2255169
:1015A0000B48FFF707FE70B10948FFF7A4FDC4B26E
:1015B00021460748FFF79BFD00BF40210448FFF785
:1015C000EDFD0128F9D140210148FFF7F0FD10BDE4
:1015D000003801400008014030B50B4601460020AC
:1015E0002022012409E021FA02F59D4205D303FAE5
:1015F00002F5491B04FA02F52844151EA2F1010266
:10160000F1DC30BD064C074D06E0E06840F0010318
:1016100094E8070098471034AC42F6D3FEF78CFDEF
:10162000BC170008DC1700080FB4054B10B503A960
:10163000044A029800F018F810BC5DF814FB000092
:10164000CD1400082000002002E008C8121F08C1C5
:10165000002AFAD170477047002001E001C1121F33
:10166000002AFBD1704700002DE9FF4F89B09B464F
:101670000446002506E025280BD05A460B999047D2
:10168000641C6D1C20780028F5D10DB02846BDE8FB
:10169000F08F0027B8460122474900E0074314F8BD
:1016A000013F203B02FA03F00842F7D120782E28B0
:1016B00019D114F8010F47F004072A280ED06FF053
:1016C0002F022078A0F1300109290CD808EB8801FD
:1016D00002EB410100EB0108641CF2E70A98641C6C
:1016E00050F8048B0A9020780028CED0642808D0C7
:1016F000692806D075281ED05A460B9990476D1C54
:1017000058E00A994FF00A0901C90A91002802DA43
:1017100040422D2102E0390504D52B218DF82010FF
:10172000012103E0F90704D02021F7E78A4608AE3B
:101730000DE00021FAE70A994FF00A0901C90A9160
:10174000F7E74946FFF748FF303106F8011D00284A
:10175000F7D1ADEB060000F12009780701D44FF076
:101760000108C84502DDA8EB090000E00020804622
:10177000002706E008A85A46C05D0B9990476D1CEB
:101780007F1C5745F6DB04E030205A460B99904702
:101790006D1CB8F10001A8F10108F5DC05E016F8B0
:1017A000010B5A460B9990476D1CB9F10001A9F144
:1017B0000109F4DC641C65E709280100DC17000856
:1017C000000000202400000048160008001800084F
:1017D0002400002004020000581600080000000049
:1017E00000000000000000000000010203040102EC
:1017F00003040607080902040608000000000000B0
:0400000508000131BD
:00000001FF
